{
  "contractName": "SecretNumber",
  "abi": [
    {
      "inputs": [
        {
          "internalType": "address",
          "name": "_initalOwner",
          "type": "address"
        },
        {
          "internalType": "uint8",
          "name": "_initalValues",
          "type": "uint8"
        }
      ],
      "stateMutability": "nonpayable",
      "type": "constructor"
    },
    {
      "inputs": [],
      "name": "owner",
      "outputs": [
        {
          "internalType": "address",
          "name": "",
          "type": "address"
        }
      ],
      "stateMutability": "view",
      "type": "function",
      "constant": true
    },
    {
      "inputs": [],
      "name": "getSecretNumber",
      "outputs": [
        {
          "internalType": "uint8",
          "name": "_secretNumber",
          "type": "uint8"
        }
      ],
      "stateMutability": "view",
      "type": "function",
      "constant": true
    },
    {
      "inputs": [
        {
          "internalType": "uint8",
          "name": "_updatedValue",
          "type": "uint8"
        }
      ],
      "name": "changeSecretNumber",
      "outputs": [],
      "stateMutability": "nonpayable",
      "type": "function"
    }
  ],
  "bytecode": "0x608060405234801561001057600080fd5b5060405161039c38038061039c83398181016040528101906100329190610130565b816000806101000a81548173ffffffffffffffffffffffffffffffffffffffff021916908373ffffffffffffffffffffffffffffffffffffffff16021790555080600060146101000a81548160ff021916908360ff1602179055505050610170565b600080fd5b600073ffffffffffffffffffffffffffffffffffffffff82169050919050565b60006100c482610099565b9050919050565b6100d4816100b9565b81146100df57600080fd5b50565b6000815190506100f1816100cb565b92915050565b600060ff82169050919050565b61010d816100f7565b811461011857600080fd5b50565b60008151905061012a81610104565b92915050565b6000806040838503121561014757610146610094565b5b6000610155858286016100e2565b92505060206101668582860161011b565b9150509250929050565b61021d8061017f6000396000f3fe608060405234801561001057600080fd5b50600436106100415760003560e01c80632cdb1a311461004657806384c1d639146100625780638da5cb5b14610080575b600080fd5b610060600480360381019061005b9190610134565b61009e565b005b61006a6100bc565b6040516100779190610170565b60405180910390f35b6100886100d2565b60405161009591906101cc565b60405180910390f35b80600060146101000a81548160ff021916908360ff16021790555050565b60008060149054906101000a900460ff16905090565b60008054906101000a900473ffffffffffffffffffffffffffffffffffffffff1681565b600080fd5b600060ff82169050919050565b610111816100fb565b811461011c57600080fd5b50565b60008135905061012e81610108565b92915050565b60006020828403121561014a576101496100f6565b5b60006101588482850161011f565b91505092915050565b61016a816100fb565b82525050565b60006020820190506101856000830184610161565b92915050565b600073ffffffffffffffffffffffffffffffffffffffff82169050919050565b60006101b68261018b565b9050919050565b6101c6816101ab565b82525050565b60006020820190506101e160008301846101bd565b9291505056fea264697066735822122094b1a9dc57fcae5e02506115e7a367ad57a0c06a6847c1210be1d4f078f9682264736f6c63430008090033",
  "immutableReferences": {},
  "source": "// SPDX-License-Identifier: MIT\npragma solidity ^0.8.9;\n\n/**\n * @dev This contract stores a number\n */\ncontract SecretNumber {\n\n    address public owner;\n    uint8 secretNumber;\n\n    /**\n     * @param _initalValues The inital value for secret number\n     */\n    constructor(address _initalOwner, uint8 _initalValues){\n        owner = _initalOwner;\n        secretNumber = _initalValues;\n    }\n\n    function getSecretNumber () public view returns(uint8 _secretNumber){\n        return secretNumber;\n    }\n\n    function changeSecretNumber (uint8 _updatedValue) public{\n        secretNumber = _updatedValue;\n    } \n}",
  "sourcePath": "/home/jack/nftsite/contracts/SecretNumber.sol",
  "compiler": {
    "name": "solc",
    "version": "0.8.9+commit.e5eed63a.Emscripten.clang"
  },
  "schemaVersion": "3.4.3",
  "updatedAt": "2023-10-09T10:22:24.512Z",
  "networkType": "ethereum",
  "devdoc": {
    "details": "This contract stores a number",
    "kind": "dev",
    "methods": {
      "constructor": {
        "params": {
          "_initalValues": "The inital value for secret number"
        }
      }
    },
    "version": 1
  },
  "userdoc": {
    "kind": "user",
    "methods": {},
    "version": 1
  }
}