{
  "contractName": "Token",
  "abi": [
    {
      "inputs": [
        {
          "internalType": "uint256",
          "name": "_initalSupply",
          "type": "uint256"
        }
      ],
      "stateMutability": "nonpayable",
      "type": "constructor"
    },
    {
      "inputs": [
        {
          "internalType": "address",
          "name": "",
          "type": "address"
        }
      ],
      "name": "balance",
      "outputs": [
        {
          "internalType": "uint256",
          "name": "",
          "type": "uint256"
        }
      ],
      "stateMutability": "view",
      "type": "function",
      "constant": true
    },
    {
      "inputs": [],
      "name": "totalSupply",
      "outputs": [
        {
          "internalType": "uint256",
          "name": "",
          "type": "uint256"
        }
      ],
      "stateMutability": "view",
      "type": "function",
      "constant": true
    },
    {
      "inputs": [
        {
          "internalType": "address",
          "name": "_to",
          "type": "address"
        },
        {
          "internalType": "uint256",
          "name": "_amount",
          "type": "uint256"
        }
      ],
      "name": "transfer",
      "outputs": [],
      "stateMutability": "nonpayable",
      "type": "function"
    },
    {
      "inputs": [
        {
          "internalType": "uint256",
          "name": "_amount",
          "type": "uint256"
        }
      ],
      "name": "mint",
      "outputs": [],
      "stateMutability": "nonpayable",
      "type": "function"
    },
    {
      "inputs": [
        {
          "internalType": "address",
          "name": "_address",
          "type": "address"
        }
      ],
      "name": "balanceOf",
      "outputs": [
        {
          "internalType": "uint256",
          "name": "",
          "type": "uint256"
        }
      ],
      "stateMutability": "view",
      "type": "function",
      "constant": true
    }
  ],
  "bytecode": "0x608060405234801561001057600080fd5b5060405161069a38038061069a833981810160405281019061003291906100f3565b6100418161004760201b60201c565b506101a5565b80600160003373ffffffffffffffffffffffffffffffffffffffff1673ffffffffffffffffffffffffffffffffffffffff1681526020019081526020016000206000828254610096919061014f565b92505081905550806000808282546100ae919061014f565b9250508190555050565b600080fd5b6000819050919050565b6100d0816100bd565b81146100db57600080fd5b50565b6000815190506100ed816100c7565b92915050565b600060208284031215610109576101086100b8565b5b6000610117848285016100de565b91505092915050565b7f4e487b7100000000000000000000000000000000000000000000000000000000600052601160045260246000fd5b600061015a826100bd565b9150610165836100bd565b9250827fffffffffffffffffffffffffffffffffffffffffffffffffffffffffffffffff0382111561019a57610199610120565b5b828201905092915050565b6104e6806101b46000396000f3fe608060405234801561001057600080fd5b50600436106100575760003560e01c806318160ddd1461005c57806370a082311461007a578063a0712d68146100aa578063a9059cbb146100c6578063e3d670d7146100e2575b600080fd5b610064610112565b60405161007191906102b3565b60405180910390f35b610094600480360381019061008f9190610331565b610118565b6040516100a191906102b3565b60405180910390f35b6100c460048036038101906100bf919061038a565b610161565b005b6100e060048036038101906100db91906103b7565b6101d2565b005b6100fc60048036038101906100f79190610331565b610282565b60405161010991906102b3565b60405180910390f35b60005481565b6000600160008373ffffffffffffffffffffffffffffffffffffffff1673ffffffffffffffffffffffffffffffffffffffff168152602001908152602001600020549050919050565b80600160003373ffffffffffffffffffffffffffffffffffffffff1673ffffffffffffffffffffffffffffffffffffffff16815260200190815260200160002060008282546101b09190610426565b92505081905550806000808282546101c89190610426565b9250508190555050565b80600160008473ffffffffffffffffffffffffffffffffffffffff1673ffffffffffffffffffffffffffffffffffffffff16815260200190815260200160002060008282546102219190610426565b9250508190555080600160003373ffffffffffffffffffffffffffffffffffffffff1673ffffffffffffffffffffffffffffffffffffffff1681526020019081526020016000206000828254610277919061047c565b925050819055505050565b60016020528060005260406000206000915090505481565b6000819050919050565b6102ad8161029a565b82525050565b60006020820190506102c860008301846102a4565b92915050565b600080fd5b600073ffffffffffffffffffffffffffffffffffffffff82169050919050565b60006102fe826102d3565b9050919050565b61030e816102f3565b811461031957600080fd5b50565b60008135905061032b81610305565b92915050565b600060208284031215610347576103466102ce565b5b60006103558482850161031c565b91505092915050565b6103678161029a565b811461037257600080fd5b50565b6000813590506103848161035e565b92915050565b6000602082840312156103a05761039f6102ce565b5b60006103ae84828501610375565b91505092915050565b600080604083850312156103ce576103cd6102ce565b5b60006103dc8582860161031c565b92505060206103ed85828601610375565b9150509250929050565b7f4e487b7100000000000000000000000000000000000000000000000000000000600052601160045260246000fd5b60006104318261029a565b915061043c8361029a565b9250827fffffffffffffffffffffffffffffffffffffffffffffffffffffffffffffffff03821115610471576104706103f7565b5b828201905092915050565b60006104878261029a565b91506104928361029a565b9250828210156104a5576104a46103f7565b5b82820390509291505056fea26469706673582212204bf590bed0a2f117350bad37f3b1c35fb2f10f9b5eddb5bfe7615b4c78a8878664736f6c63430008090033",
  "immutableReferences": {},
  "source": "// SPDX-License-Identifier: MIT\npragma solidity ^0.8.9;\n\ncontract Token {\n\n    constructor(uint256 _initalSupply){\n        mint(_initalSupply);\n    }\n\n    uint256 public totalSupply;\n    mapping (address => uint256) public balance;\n\n    function transfer(address _to, uint256 _amount) public {\n        balance[_to] += _amount;\n        balance[msg.sender] -= _amount;\n    }\n\n    function mint(uint256 _amount) public {\n        balance[msg.sender] += _amount;\n        totalSupply += _amount;\n    }\n\n    function balanceOf(address _address) public view returns(uint256){\n        return balance[_address];\n    }\n}",
  "sourcePath": "/home/jack/nftsite/contracts/Token.sol",
  "compiler": {
    "name": "solc",
    "version": "0.8.9+commit.e5eed63a.Emscripten.clang"
  },
  "schemaVersion": "3.4.3",
  "updatedAt": "2023-10-10T10:31:30.806Z",
  "networkType": "ethereum",
  "devdoc": {
    "kind": "dev",
    "methods": {},
    "version": 1
  },
  "userdoc": {
    "kind": "user",
    "methods": {},
    "version": 1
  }
}