{
  "contractName": "VotingControler",
  "abi": [
    {
      "inputs": [],
      "stateMutability": "nonpayable",
      "type": "constructor"
    },
    {
      "inputs": [
        {
          "internalType": "uint256",
          "name": "",
          "type": "uint256"
        }
      ],
      "name": "votingContracts",
      "outputs": [
        {
          "internalType": "contract Voting",
          "name": "",
          "type": "address"
        }
      ],
      "stateMutability": "view",
      "type": "function",
      "constant": true
    },
    {
      "inputs": [],
      "name": "createNewVote",
      "outputs": [],
      "stateMutability": "nonpayable",
      "type": "function"
    }
  ],
  "bytecode": "0x608060405234801561001057600080fd5b5061001f61003260201b60201c565b61002d61003260201b60201c565b6100d2565b6000604051610040906100c5565b604051809103906000f08015801561005c573d6000803e3d6000fd5b5090506000819080600181540180825580915050600190039060005260206000200160009091909190916101000a81548173ffffffffffffffffffffffffffffffffffffffff021916908373ffffffffffffffffffffffffffffffffffffffff16021790555050565b61082180610b8e83390190565b610aad806100e16000396000f3fe608060405234801561001057600080fd5b50600436106100365760003560e01c8063322aa8e31461003b578063c2a6c7f91461006b575b600080fd5b6100556004803603810190610050919061018f565b610075565b604051610062919061023b565b60405180910390f35b6100736100b4565b005b6000818154811061008557600080fd5b906000526020600020016000915054906101000a900473ffffffffffffffffffffffffffffffffffffffff1681565b60006040516100c290610147565b604051809103906000f0801580156100de573d6000803e3d6000fd5b5090506000819080600181540180825580915050600190039060005260206000200160009091909190916101000a81548173ffffffffffffffffffffffffffffffffffffffff021916908373ffffffffffffffffffffffffffffffffffffffff16021790555050565b6108218061025783390190565b600080fd5b6000819050919050565b61016c81610159565b811461017757600080fd5b50565b60008135905061018981610163565b92915050565b6000602082840312156101a5576101a4610154565b5b60006101b38482850161017a565b91505092915050565b600073ffffffffffffffffffffffffffffffffffffffff82169050919050565b6000819050919050565b60006102016101fc6101f7846101bc565b6101dc565b6101bc565b9050919050565b6000610213826101e6565b9050919050565b600061022582610208565b9050919050565b6102358161021a565b82525050565b6000602082019050610250600083018461022c565b9291505056fe608060405234801561001057600080fd5b5060028060006101000a81548160ff021916908360ff16021790555060405180604001604052806040518060400160405280600481526020017f54657374000000000000000000000000000000000000000000000000000000008152508152602001600060ff16815250600160008060ff16815260200190815260200160002060008201518160000190805190602001906100ac92919061017c565b5060208201518160010160006101000a81548160ff021916908360ff16021790555090505060405180604001604052806040518060400160405280600581526020017f54657374320000000000000000000000000000000000000000000000000000008152508152602001600060ff1681525060016000600160ff168152602001908152602001600020600082015181600001908051906020019061015292919061017c565b5060208201518160010160006101000a81548160ff021916908360ff160217905550905050610280565b8280546101889061024e565b90600052602060002090601f0160209004810192826101aa57600085556101f1565b82601f106101c357805160ff19168380011785556101f1565b828001600101855582156101f1579182015b828111156101f05782518255916020019190600101906101d5565b5b5090506101fe9190610202565b5090565b5b8082111561021b576000816000905550600101610203565b5090565b7f4e487b7100000000000000000000000000000000000000000000000000000000600052602260045260246000fd5b6000600282049050600182168061026657607f821691505b6020821081141561027a5761027961021f565b5b50919050565b6105928061028f6000396000f3fe608060405234801561001057600080fd5b50600436106100415760003560e01c806309eef43e14610046578063326ea0fe14610076578063b3f98adc146100a7575b600080fd5b610060600480360381019061005b9190610301565b6100c3565b60405161006d9190610349565b60405180910390f35b610090600480360381019061008b919061039d565b6100e3565b60405161009e929190610472565b60405180910390f35b6100c160048036038101906100bc919061039d565b61019c565b005b60006020528060005260406000206000915054906101000a900460ff1681565b6001602052806000526040600020600091509050806000018054610106906104d1565b80601f0160208091040260200160405190810160405280929190818152602001828054610132906104d1565b801561017f5780601f106101545761010080835404028352916020019161017f565b820191906000526020600020905b81548152906001019060200180831161016257829003601f168201915b5050505050908060010160009054906101000a900460ff16905082565b6000803373ffffffffffffffffffffffffffffffffffffffff1673ffffffffffffffffffffffffffffffffffffffff16815260200190815260200160002060009054906101000a900460ff16156101f257600080fd5b60016000803373ffffffffffffffffffffffffffffffffffffffff1673ffffffffffffffffffffffffffffffffffffffff16815260200190815260200160002060006101000a81548160ff021916908315150217905550600160008260ff1660ff168152602001908152602001600020600101600081819054906101000a900460ff168092919061028290610532565b91906101000a81548160ff021916908360ff1602179055505050565b600080fd5b600073ffffffffffffffffffffffffffffffffffffffff82169050919050565b60006102ce826102a3565b9050919050565b6102de816102c3565b81146102e957600080fd5b50565b6000813590506102fb816102d5565b92915050565b6000602082840312156103175761031661029e565b5b6000610325848285016102ec565b91505092915050565b60008115159050919050565b6103438161032e565b82525050565b600060208201905061035e600083018461033a565b92915050565b600060ff82169050919050565b61037a81610364565b811461038557600080fd5b50565b60008135905061039781610371565b92915050565b6000602082840312156103b3576103b261029e565b5b60006103c184828501610388565b91505092915050565b600081519050919050565b600082825260208201905092915050565b60005b838110156104045780820151818401526020810190506103e9565b83811115610413576000848401525b50505050565b6000601f19601f8301169050919050565b6000610435826103ca565b61043f81856103d5565b935061044f8185602086016103e6565b61045881610419565b840191505092915050565b61046c81610364565b82525050565b6000604082019050818103600083015261048c818561042a565b905061049b6020830184610463565b9392505050565b7f4e487b7100000000000000000000000000000000000000000000000000000000600052602260045260246000fd5b600060028204905060018216806104e957607f821691505b602082108114156104fd576104fc6104a2565b5b50919050565b7f4e487b7100000000000000000000000000000000000000000000000000000000600052601160045260246000fd5b600061053d82610364565b915060ff82141561055157610550610503565b5b60018201905091905056fea264697066735822122045fb390c44ae401669ab1359fce5084af58fdfe613cc619cb52b4f7cfcd7fc6564736f6c63430008090033a26469706673582212202c5d2c8cadd1ad6ba328d7cdfe6c7e743afd29c82ecc779738a674c53f089ff864736f6c63430008090033608060405234801561001057600080fd5b5060028060006101000a81548160ff021916908360ff16021790555060405180604001604052806040518060400160405280600481526020017f54657374000000000000000000000000000000000000000000000000000000008152508152602001600060ff16815250600160008060ff16815260200190815260200160002060008201518160000190805190602001906100ac92919061017c565b5060208201518160010160006101000a81548160ff021916908360ff16021790555090505060405180604001604052806040518060400160405280600581526020017f54657374320000000000000000000000000000000000000000000000000000008152508152602001600060ff1681525060016000600160ff168152602001908152602001600020600082015181600001908051906020019061015292919061017c565b5060208201518160010160006101000a81548160ff021916908360ff160217905550905050610280565b8280546101889061024e565b90600052602060002090601f0160209004810192826101aa57600085556101f1565b82601f106101c357805160ff19168380011785556101f1565b828001600101855582156101f1579182015b828111156101f05782518255916020019190600101906101d5565b5b5090506101fe9190610202565b5090565b5b8082111561021b576000816000905550600101610203565b5090565b7f4e487b7100000000000000000000000000000000000000000000000000000000600052602260045260246000fd5b6000600282049050600182168061026657607f821691505b6020821081141561027a5761027961021f565b5b50919050565b6105928061028f6000396000f3fe608060405234801561001057600080fd5b50600436106100415760003560e01c806309eef43e14610046578063326ea0fe14610076578063b3f98adc146100a7575b600080fd5b610060600480360381019061005b9190610301565b6100c3565b60405161006d9190610349565b60405180910390f35b610090600480360381019061008b919061039d565b6100e3565b60405161009e929190610472565b60405180910390f35b6100c160048036038101906100bc919061039d565b61019c565b005b60006020528060005260406000206000915054906101000a900460ff1681565b6001602052806000526040600020600091509050806000018054610106906104d1565b80601f0160208091040260200160405190810160405280929190818152602001828054610132906104d1565b801561017f5780601f106101545761010080835404028352916020019161017f565b820191906000526020600020905b81548152906001019060200180831161016257829003601f168201915b5050505050908060010160009054906101000a900460ff16905082565b6000803373ffffffffffffffffffffffffffffffffffffffff1673ffffffffffffffffffffffffffffffffffffffff16815260200190815260200160002060009054906101000a900460ff16156101f257600080fd5b60016000803373ffffffffffffffffffffffffffffffffffffffff1673ffffffffffffffffffffffffffffffffffffffff16815260200190815260200160002060006101000a81548160ff021916908315150217905550600160008260ff1660ff168152602001908152602001600020600101600081819054906101000a900460ff168092919061028290610532565b91906101000a81548160ff021916908360ff1602179055505050565b600080fd5b600073ffffffffffffffffffffffffffffffffffffffff82169050919050565b60006102ce826102a3565b9050919050565b6102de816102c3565b81146102e957600080fd5b50565b6000813590506102fb816102d5565b92915050565b6000602082840312156103175761031661029e565b5b6000610325848285016102ec565b91505092915050565b60008115159050919050565b6103438161032e565b82525050565b600060208201905061035e600083018461033a565b92915050565b600060ff82169050919050565b61037a81610364565b811461038557600080fd5b50565b60008135905061039781610371565b92915050565b6000602082840312156103b3576103b261029e565b5b60006103c184828501610388565b91505092915050565b600081519050919050565b600082825260208201905092915050565b60005b838110156104045780820151818401526020810190506103e9565b83811115610413576000848401525b50505050565b6000601f19601f8301169050919050565b6000610435826103ca565b61043f81856103d5565b935061044f8185602086016103e6565b61045881610419565b840191505092915050565b61046c81610364565b82525050565b6000604082019050818103600083015261048c818561042a565b905061049b6020830184610463565b9392505050565b7f4e487b7100000000000000000000000000000000000000000000000000000000600052602260045260246000fd5b600060028204905060018216806104e957607f821691505b602082108114156104fd576104fc6104a2565b5b50919050565b7f4e487b7100000000000000000000000000000000000000000000000000000000600052601160045260246000fd5b600061053d82610364565b915060ff82141561055157610550610503565b5b60018201905091905056fea264697066735822122045fb390c44ae401669ab1359fce5084af58fdfe613cc619cb52b4f7cfcd7fc6564736f6c63430008090033",
  "immutableReferences": {},
  "source": "// SPDX-License-Identifier: MIT\npragma solidity ^0.8.9;\n\nimport \"./Voting.sol\";\n\ncontract VotingControler {\n\n    Voting[] public votingContracts;\n\n    function createNewVote() public {\n          Voting newContract = new Voting();\n          votingContracts.push(newContract);\n    }\n\n    constructor(\n        //choiceData[] memory _initalChoices\n    ){\n        createNewVote();\n        createNewVote();\n    }\n}",
  "sourcePath": "/home/jack/nftsite/contracts/VotingControler.sol",
  "compiler": {
    "name": "solc",
    "version": "0.8.9+commit.e5eed63a.Emscripten.clang"
  },
  "schemaVersion": "3.4.3",
  "updatedAt": "2023-10-09T14:04:29.378Z",
  "networkType": "ethereum",
  "devdoc": {
    "kind": "dev",
    "methods": {},
    "version": 1
  },
  "userdoc": {
    "kind": "user",
    "methods": {},
    "version": 1
  }
}