{
  "contractName": "VotingController",
  "abi": [
    {
      "inputs": [],
      "stateMutability": "nonpayable",
      "type": "constructor"
    },
    {
      "inputs": [
        {
          "internalType": "uint256",
          "name": "",
          "type": "uint256"
        }
      ],
      "name": "votingContracts",
      "outputs": [
        {
          "internalType": "string",
          "name": "name",
          "type": "string"
        },
        {
          "internalType": "address",
          "name": "votingContract",
          "type": "address"
        }
      ],
      "stateMutability": "view",
      "type": "function"
    },
    {
      "inputs": [],
      "name": "getAllVotingContracts",
      "outputs": [
        {
          "components": [
            {
              "internalType": "string",
              "name": "name",
              "type": "string"
            },
            {
              "internalType": "address",
              "name": "votingContract",
              "type": "address"
            }
          ],
          "internalType": "struct VotingController.VoteData[]",
          "name": "",
          "type": "tuple[]"
        }
      ],
      "stateMutability": "view",
      "type": "function"
    },
    {
      "inputs": [
        {
          "internalType": "string",
          "name": "_name",
          "type": "string"
        }
      ],
      "name": "createNewVote",
      "outputs": [],
      "stateMutability": "nonpayable",
      "type": "function"
    }
  ],
  "bytecode": "0x60806040523480156200001157600080fd5b50620000586040518060400160405280600581526020017f4669727374000000000000000000000000000000000000000000000000000000815250620000ea60201b60201c565b6200009e6040518060400160405280600681526020017f5365636f6e640000000000000000000000000000000000000000000000000000815250620000ea60201b60201c565b620000e46040518060400160405280600581526020017f5468697264000000000000000000000000000000000000000000000000000000815250620000ea60201b60201c565b620002ff565b6000604051620000fa90620001dc565b604051809103906000f08015801562000117573d6000803e3d6000fd5b509050600060405180604001604052808481526020018373ffffffffffffffffffffffffffffffffffffffff16815250908060018154018082558091505060019003906000526020600020906002020160009091909190915060008201518160000190805190602001906200018e929190620001ea565b5060208201518160010160006101000a81548173ffffffffffffffffffffffffffffffffffffffff021916908373ffffffffffffffffffffffffffffffffffffffff16021790555050505050565b610d648062001a8f83390190565b828054620001f890620002c9565b90600052602060002090601f0160209004810192826200021c576000855562000268565b82601f106200023757805160ff191683800117855562000268565b8280016001018555821562000268579182015b82811115620002675782518255916020019190600101906200024a565b5b5090506200027791906200027b565b5090565b5b80821115620002965760008160009055506001016200027c565b5090565b7f4e487b7100000000000000000000000000000000000000000000000000000000600052602260045260246000fd5b60006002820490506001821680620002e257607f821691505b60208210811415620002f957620002f86200029a565b5b50919050565b611780806200030f6000396000f3fe60806040523480156200001157600080fd5b5060043610620000455760003560e01c8062916c2e146200004a578063322aa8e3146200006c5780636801f32414620000a3575b600080fd5b62000054620000c3565b604051620000639190620006a3565b60405180910390f35b6200008a600480360381019062000084919062000716565b62000214565b6040516200009a929190620007ab565b60405180910390f35b620000c16004803603810190620000bb919062000930565b620002f9565b005b60606000805480602002602001604051908101604052809291908181526020016000905b828210156200020b57838290600052602060002090600202016040518060400160405290816000820180546200011d90620009b0565b80601f01602080910402602001604051908101604052809291908181526020018280546200014b90620009b0565b80156200019c5780601f1062000170576101008083540402835291602001916200019c565b820191906000526020600020905b8154815290600101906020018083116200017e57829003601f168201915b505050505081526020016001820160009054906101000a900473ffffffffffffffffffffffffffffffffffffffff1673ffffffffffffffffffffffffffffffffffffffff1673ffffffffffffffffffffffffffffffffffffffff168152505081526020019060010190620000e7565b50505050905090565b600081815481106200022557600080fd5b90600052602060002090600202016000915090508060000180546200024a90620009b0565b80601f01602080910402602001604051908101604052809291908181526020018280546200027890620009b0565b8015620002c95780601f106200029d57610100808354040283529160200191620002c9565b820191906000526020600020905b815481529060010190602001808311620002ab57829003601f168201915b5050505050908060010160009054906101000a900473ffffffffffffffffffffffffffffffffffffffff16905082565b60006040516200030990620003eb565b604051809103906000f08015801562000326573d6000803e3d6000fd5b509050600060405180604001604052808481526020018373ffffffffffffffffffffffffffffffffffffffff16815250908060018154018082558091505060019003906000526020600020906002020160009091909190915060008201518160000190805190602001906200039d929190620003f9565b5060208201518160010160006101000a81548173ffffffffffffffffffffffffffffffffffffffff021916908373ffffffffffffffffffffffffffffffffffffffff16021790555050505050565b610d6480620009e783390190565b8280546200040790620009b0565b90600052602060002090601f0160209004810192826200042b576000855562000477565b82601f106200044657805160ff191683800117855562000477565b8280016001018555821562000477579182015b828111156200047657825182559160200191906001019062000459565b5b5090506200048691906200048a565b5090565b5b80821115620004a55760008160009055506001016200048b565b5090565b600081519050919050565b600082825260208201905092915050565b6000819050602082019050919050565b600081519050919050565b600082825260208201905092915050565b60005b8381101562000511578082015181840152602081019050620004f4565b8381111562000521576000848401525b50505050565b6000601f19601f8301169050919050565b60006200054582620004d5565b620005518185620004e0565b935062000563818560208601620004f1565b6200056e8162000527565b840191505092915050565b600073ffffffffffffffffffffffffffffffffffffffff82169050919050565b6000620005a68262000579565b9050919050565b620005b88162000599565b82525050565b60006040830160008301518482036000860152620005dd828262000538565b9150506020830151620005f46020860182620005ad565b508091505092915050565b60006200060d8383620005be565b905092915050565b6000602082019050919050565b60006200062f82620004a9565b6200063b8185620004b4565b9350836020820285016200064f85620004c5565b8060005b858110156200069157848403895281516200066f8582620005ff565b94506200067c8362000615565b925060208a0199505060018101905062000653565b50829750879550505050505092915050565b60006020820190508181036000830152620006bf818462000622565b905092915050565b6000604051905090565b600080fd5b600080fd5b6000819050919050565b620006f081620006db565b8114620006fc57600080fd5b50565b6000813590506200071081620006e5565b92915050565b6000602082840312156200072f576200072e620006d1565b5b60006200073f84828501620006ff565b91505092915050565b600082825260208201905092915050565b60006200076682620004d5565b62000772818562000748565b935062000784818560208601620004f1565b6200078f8162000527565b840191505092915050565b620007a58162000599565b82525050565b60006040820190508181036000830152620007c7818562000759565b9050620007d860208301846200079a565b9392505050565b600080fd5b600080fd5b7f4e487b7100000000000000000000000000000000000000000000000000000000600052604160045260246000fd5b620008238262000527565b810181811067ffffffffffffffff82111715620008455762000844620007e9565b5b80604052505050565b60006200085a620006c7565b905062000868828262000818565b919050565b600067ffffffffffffffff8211156200088b576200088a620007e9565b5b620008968262000527565b9050602081019050919050565b82818337600083830152505050565b6000620008c9620008c3846200086d565b6200084e565b905082815260208101848484011115620008e857620008e7620007e4565b5b620008f5848285620008a3565b509392505050565b600082601f830112620009155762000914620007df565b5b813562000927848260208601620008b2565b91505092915050565b600060208284031215620009495762000948620006d1565b5b600082013567ffffffffffffffff8111156200096a5762000969620006d6565b5b6200097884828501620008fd565b91505092915050565b7f4e487b7100000000000000000000000000000000000000000000000000000000600052602260045260246000fd5b60006002820490506001821680620009c957607f821691505b60208210811415620009e057620009df62000981565b5b5091905056fe608060405234801561001057600080fd5b5060028060006101000a81548160ff021916908360ff160217905550600160405180604001604052806040518060400160405280600481526020017f54657374000000000000000000000000000000000000000000000000000000008152508152602001600060ff16815250908060018154018082558091505060019003906000526020600020906002020160009091909190915060008201518160000190805190602001906100c19291906101a3565b5060208201518160010160006101000a81548160ff021916908360ff1602179055505050600160405180604001604052806040518060400160405280600581526020017f54657374320000000000000000000000000000000000000000000000000000008152508152602001600060ff168152509080600181540180825580915050600190039060005260206000209060020201600090919091909150600082015181600001908051906020019061017a9291906101a3565b5060208201518160010160006101000a81548160ff021916908360ff16021790555050506102a7565b8280546101af90610275565b90600052602060002090601f0160209004810192826101d15760008555610218565b82601f106101ea57805160ff1916838001178555610218565b82800160010185558215610218579182015b828111156102175782518255916020019190600101906101fc565b5b5090506102259190610229565b5090565b5b8082111561024257600081600090555060010161022a565b5090565b7f4e487b7100000000000000000000000000000000000000000000000000000000600052602260045260246000fd5b6000600282049050600182168061028d57607f821691505b602082108114156102a1576102a0610246565b5b50919050565b610aad80620002b76000396000f3fe608060405234801561001057600080fd5b50600436106100575760003560e01c806309eef43e1461005c5780634d14e3441461008c578063b3f98adc146100aa578063e97995dc146100c6578063f6fd7fde146100e4575b600080fd5b6100766004803603810190610071919061051d565b610115565b6040516100839190610565565b60405180910390f35b610094610135565b6040516100a1919061059c565b60405180910390f35b6100c460048036038101906100bf91906105e3565b610148565b005b6100ce6102e3565b6040516100db91906107b7565b60405180910390f35b6100fe60048036038101906100f9919061080f565b6103f1565b60405161010c929190610886565b60405180910390f35b60006020528060005260406000206000915054906101000a900460ff1681565b600260009054906101000a900460ff1681565b6000803373ffffffffffffffffffffffffffffffffffffffff1673ffffffffffffffffffffffffffffffffffffffff16815260200190815260200160002060009054906101000a900460ff16156101d4576040517f08c379a00000000000000000000000000000000000000000000000000000000081526004016101cb90610902565b60405180910390fd5b600260009054906101000a900460ff1660ff168160ff161061022b576040517f08c379a00000000000000000000000000000000000000000000000000000000081526004016102229061096e565b60405180910390fd5b60016000803373ffffffffffffffffffffffffffffffffffffffff1673ffffffffffffffffffffffffffffffffffffffff16815260200190815260200160002060006101000a81548160ff02191690831515021790555060018160ff16815481106102995761029861098e565b5b9060005260206000209060020201600101600081819054906101000a900460ff16809291906102c7906109ec565b91906101000a81548160ff021916908360ff1602179055505050565b60606001805480602002602001604051908101604052809291908181526020016000905b828210156103e8578382906000526020600020906002020160405180604001604052908160008201805461033a90610a45565b80601f016020809104026020016040519081016040528092919081815260200182805461036690610a45565b80156103b35780601f10610388576101008083540402835291602001916103b3565b820191906000526020600020905b81548152906001019060200180831161039657829003601f168201915b505050505081526020016001820160009054906101000a900460ff1660ff1660ff168152505081526020019060010190610307565b50505050905090565b6001818154811061040157600080fd5b906000526020600020906002020160009150905080600001805461042490610a45565b80601f016020809104026020016040519081016040528092919081815260200182805461045090610a45565b801561049d5780601f106104725761010080835404028352916020019161049d565b820191906000526020600020905b81548152906001019060200180831161048057829003601f168201915b5050505050908060010160009054906101000a900460ff16905082565b600080fd5b600073ffffffffffffffffffffffffffffffffffffffff82169050919050565b60006104ea826104bf565b9050919050565b6104fa816104df565b811461050557600080fd5b50565b600081359050610517816104f1565b92915050565b600060208284031215610533576105326104ba565b5b600061054184828501610508565b91505092915050565b60008115159050919050565b61055f8161054a565b82525050565b600060208201905061057a6000830184610556565b92915050565b600060ff82169050919050565b61059681610580565b82525050565b60006020820190506105b1600083018461058d565b92915050565b6105c081610580565b81146105cb57600080fd5b50565b6000813590506105dd816105b7565b92915050565b6000602082840312156105f9576105f86104ba565b5b6000610607848285016105ce565b91505092915050565b600081519050919050565b600082825260208201905092915050565b6000819050602082019050919050565b600081519050919050565b600082825260208201905092915050565b60005b8381101561067657808201518184015260208101905061065b565b83811115610685576000848401525b50505050565b6000601f19601f8301169050919050565b60006106a78261063c565b6106b18185610647565b93506106c1818560208601610658565b6106ca8161068b565b840191505092915050565b6106de81610580565b82525050565b60006040830160008301518482036000860152610701828261069c565b915050602083015161071660208601826106d5565b508091505092915050565b600061072d83836106e4565b905092915050565b6000602082019050919050565b600061074d82610610565b610757818561061b565b9350836020820285016107698561062c565b8060005b858110156107a557848403895281516107868582610721565b945061079183610735565b925060208a0199505060018101905061076d565b50829750879550505050505092915050565b600060208201905081810360008301526107d18184610742565b905092915050565b6000819050919050565b6107ec816107d9565b81146107f757600080fd5b50565b600081359050610809816107e3565b92915050565b600060208284031215610825576108246104ba565b5b6000610833848285016107fa565b91505092915050565b600082825260208201905092915050565b60006108588261063c565b610862818561083c565b9350610872818560208601610658565b61087b8161068b565b840191505092915050565b600060408201905081810360008301526108a0818561084d565b90506108af602083018461058d565b9392505050565b7f416c726561647920766f74656400000000000000000000000000000000000000600082015250565b60006108ec600d8361083c565b91506108f7826108b6565b602082019050919050565b6000602082019050818103600083015261091b816108df565b9050919050565b7f496e76616c69642063686f696365000000000000000000000000000000000000600082015250565b6000610958600e8361083c565b915061096382610922565b602082019050919050565b600060208201905081810360008301526109878161094b565b9050919050565b7f4e487b7100000000000000000000000000000000000000000000000000000000600052603260045260246000fd5b7f4e487b7100000000000000000000000000000000000000000000000000000000600052601160045260246000fd5b60006109f782610580565b915060ff821415610a0b57610a0a6109bd565b5b600182019050919050565b7f4e487b7100000000000000000000000000000000000000000000000000000000600052602260045260246000fd5b60006002820490506001821680610a5d57607f821691505b60208210811415610a7157610a70610a16565b5b5091905056fea2646970667358221220e1e5d505fffa0e1862d3bd23e69c676f566a6cf87f21a04ce84b20d9a9f5445c64736f6c63430008090033a2646970667358221220cadce3854c008117bdc7af65910eb9f0dee4773268fe69c40c4a0fbd59711f4164736f6c63430008090033608060405234801561001057600080fd5b5060028060006101000a81548160ff021916908360ff160217905550600160405180604001604052806040518060400160405280600481526020017f54657374000000000000000000000000000000000000000000000000000000008152508152602001600060ff16815250908060018154018082558091505060019003906000526020600020906002020160009091909190915060008201518160000190805190602001906100c19291906101a3565b5060208201518160010160006101000a81548160ff021916908360ff1602179055505050600160405180604001604052806040518060400160405280600581526020017f54657374320000000000000000000000000000000000000000000000000000008152508152602001600060ff168152509080600181540180825580915050600190039060005260206000209060020201600090919091909150600082015181600001908051906020019061017a9291906101a3565b5060208201518160010160006101000a81548160ff021916908360ff16021790555050506102a7565b8280546101af90610275565b90600052602060002090601f0160209004810192826101d15760008555610218565b82601f106101ea57805160ff1916838001178555610218565b82800160010185558215610218579182015b828111156102175782518255916020019190600101906101fc565b5b5090506102259190610229565b5090565b5b8082111561024257600081600090555060010161022a565b5090565b7f4e487b7100000000000000000000000000000000000000000000000000000000600052602260045260246000fd5b6000600282049050600182168061028d57607f821691505b602082108114156102a1576102a0610246565b5b50919050565b610aad80620002b76000396000f3fe608060405234801561001057600080fd5b50600436106100575760003560e01c806309eef43e1461005c5780634d14e3441461008c578063b3f98adc146100aa578063e97995dc146100c6578063f6fd7fde146100e4575b600080fd5b6100766004803603810190610071919061051d565b610115565b6040516100839190610565565b60405180910390f35b610094610135565b6040516100a1919061059c565b60405180910390f35b6100c460048036038101906100bf91906105e3565b610148565b005b6100ce6102e3565b6040516100db91906107b7565b60405180910390f35b6100fe60048036038101906100f9919061080f565b6103f1565b60405161010c929190610886565b60405180910390f35b60006020528060005260406000206000915054906101000a900460ff1681565b600260009054906101000a900460ff1681565b6000803373ffffffffffffffffffffffffffffffffffffffff1673ffffffffffffffffffffffffffffffffffffffff16815260200190815260200160002060009054906101000a900460ff16156101d4576040517f08c379a00000000000000000000000000000000000000000000000000000000081526004016101cb90610902565b60405180910390fd5b600260009054906101000a900460ff1660ff168160ff161061022b576040517f08c379a00000000000000000000000000000000000000000000000000000000081526004016102229061096e565b60405180910390fd5b60016000803373ffffffffffffffffffffffffffffffffffffffff1673ffffffffffffffffffffffffffffffffffffffff16815260200190815260200160002060006101000a81548160ff02191690831515021790555060018160ff16815481106102995761029861098e565b5b9060005260206000209060020201600101600081819054906101000a900460ff16809291906102c7906109ec565b91906101000a81548160ff021916908360ff1602179055505050565b60606001805480602002602001604051908101604052809291908181526020016000905b828210156103e8578382906000526020600020906002020160405180604001604052908160008201805461033a90610a45565b80601f016020809104026020016040519081016040528092919081815260200182805461036690610a45565b80156103b35780601f10610388576101008083540402835291602001916103b3565b820191906000526020600020905b81548152906001019060200180831161039657829003601f168201915b505050505081526020016001820160009054906101000a900460ff1660ff1660ff168152505081526020019060010190610307565b50505050905090565b6001818154811061040157600080fd5b906000526020600020906002020160009150905080600001805461042490610a45565b80601f016020809104026020016040519081016040528092919081815260200182805461045090610a45565b801561049d5780601f106104725761010080835404028352916020019161049d565b820191906000526020600020905b81548152906001019060200180831161048057829003601f168201915b5050505050908060010160009054906101000a900460ff16905082565b600080fd5b600073ffffffffffffffffffffffffffffffffffffffff82169050919050565b60006104ea826104bf565b9050919050565b6104fa816104df565b811461050557600080fd5b50565b600081359050610517816104f1565b92915050565b600060208284031215610533576105326104ba565b5b600061054184828501610508565b91505092915050565b60008115159050919050565b61055f8161054a565b82525050565b600060208201905061057a6000830184610556565b92915050565b600060ff82169050919050565b61059681610580565b82525050565b60006020820190506105b1600083018461058d565b92915050565b6105c081610580565b81146105cb57600080fd5b50565b6000813590506105dd816105b7565b92915050565b6000602082840312156105f9576105f86104ba565b5b6000610607848285016105ce565b91505092915050565b600081519050919050565b600082825260208201905092915050565b6000819050602082019050919050565b600081519050919050565b600082825260208201905092915050565b60005b8381101561067657808201518184015260208101905061065b565b83811115610685576000848401525b50505050565b6000601f19601f8301169050919050565b60006106a78261063c565b6106b18185610647565b93506106c1818560208601610658565b6106ca8161068b565b840191505092915050565b6106de81610580565b82525050565b60006040830160008301518482036000860152610701828261069c565b915050602083015161071660208601826106d5565b508091505092915050565b600061072d83836106e4565b905092915050565b6000602082019050919050565b600061074d82610610565b610757818561061b565b9350836020820285016107698561062c565b8060005b858110156107a557848403895281516107868582610721565b945061079183610735565b925060208a0199505060018101905061076d565b50829750879550505050505092915050565b600060208201905081810360008301526107d18184610742565b905092915050565b6000819050919050565b6107ec816107d9565b81146107f757600080fd5b50565b600081359050610809816107e3565b92915050565b600060208284031215610825576108246104ba565b5b6000610833848285016107fa565b91505092915050565b600082825260208201905092915050565b60006108588261063c565b610862818561083c565b9350610872818560208601610658565b61087b8161068b565b840191505092915050565b600060408201905081810360008301526108a0818561084d565b90506108af602083018461058d565b9392505050565b7f416c726561647920766f74656400000000000000000000000000000000000000600082015250565b60006108ec600d8361083c565b91506108f7826108b6565b602082019050919050565b6000602082019050818103600083015261091b816108df565b9050919050565b7f496e76616c69642063686f696365000000000000000000000000000000000000600082015250565b6000610958600e8361083c565b915061096382610922565b602082019050919050565b600060208201905081810360008301526109878161094b565b9050919050565b7f4e487b7100000000000000000000000000000000000000000000000000000000600052603260045260246000fd5b7f4e487b7100000000000000000000000000000000000000000000000000000000600052601160045260246000fd5b60006109f782610580565b915060ff821415610a0b57610a0a6109bd565b5b600182019050919050565b7f4e487b7100000000000000000000000000000000000000000000000000000000600052602260045260246000fd5b60006002820490506001821680610a5d57607f821691505b60208210811415610a7157610a70610a16565b5b5091905056fea2646970667358221220e1e5d505fffa0e1862d3bd23e69c676f566a6cf87f21a04ce84b20d9a9f5445c64736f6c63430008090033",
  "immutableReferences": {},
  "source": "// SPDX-License-Identifier: MIT\npragma solidity ^0.8.9;\n\nimport \"./Voting.sol\";\n\ncontract VotingController {\n    VoteData[] public votingContracts;\n\n    struct VoteData {\n        string name;\n        address votingContract; // Use address to store the Voting contract's address\n    }\n\n    function getAllVotingContracts() public view returns (VoteData[] memory) {\n        return votingContracts;\n    }\n\n    function createNewVote(string memory _name) public {\n        Voting newContract = new Voting();\n        votingContracts.push(VoteData(_name, address(newContract))); // Store the Voting contract's address\n    }\n\n    constructor() {\n        createNewVote(\"First\");\n        createNewVote(\"Second\");\n        createNewVote(\"Third\");\n    }\n}\n",
  "sourcePath": "/home/jack/nftsite/contracts/VotingControler.sol",
  "compiler": {
    "name": "solc",
    "version": "0.8.9+commit.e5eed63a.Emscripten.clang"
  },
  "schemaVersion": "3.4.3",
  "updatedAt": "2023-10-11T15:47:55.410Z",
  "devdoc": {
    "kind": "dev",
    "methods": {},
    "version": 1
  },
  "userdoc": {
    "kind": "user",
    "methods": {},
    "version": 1
  }
}