{
  "contractName": "Voting",
  "abi": [
    {
      "inputs": [],
      "stateMutability": "nonpayable",
      "type": "constructor"
    },
    {
      "inputs": [
        {
          "internalType": "uint256",
          "name": "",
          "type": "uint256"
        }
      ],
      "name": "choices",
      "outputs": [
        {
          "internalType": "string",
          "name": "name",
          "type": "string"
        },
        {
          "internalType": "uint8",
          "name": "votes",
          "type": "uint8"
        }
      ],
      "stateMutability": "view",
      "type": "function",
      "constant": true
    },
    {
      "inputs": [
        {
          "internalType": "address",
          "name": "",
          "type": "address"
        }
      ],
      "name": "hasVoted",
      "outputs": [
        {
          "internalType": "bool",
          "name": "",
          "type": "bool"
        }
      ],
      "stateMutability": "view",
      "type": "function",
      "constant": true
    },
    {
      "inputs": [],
      "name": "numberOfChoices",
      "outputs": [
        {
          "internalType": "uint8",
          "name": "",
          "type": "uint8"
        }
      ],
      "stateMutability": "view",
      "type": "function",
      "constant": true
    },
    {
      "inputs": [],
      "name": "vote",
      "outputs": [],
      "stateMutability": "nonpayable",
      "type": "function"
    },
    {
      "inputs": [],
      "name": "getAllChoices",
      "outputs": [
        {
          "components": [
            {
              "internalType": "string",
              "name": "name",
              "type": "string"
            },
            {
              "internalType": "uint8",
              "name": "votes",
              "type": "uint8"
            }
          ],
          "internalType": "struct Voting.choiceData[]",
          "name": "",
          "type": "tuple[]"
        }
      ],
      "stateMutability": "view",
      "type": "function",
      "constant": true
    }
  ],
  "bytecode": "0x608060405234801561001057600080fd5b5060028060006101000a81548160ff021916908360ff160217905550600160405180604001604052806040518060400160405280600481526020017f54657374000000000000000000000000000000000000000000000000000000008152508152602001600060ff16815250908060018154018082558091505060019003906000526020600020906002020160009091909190915060008201518160000190805190602001906100c19291906101a3565b5060208201518160010160006101000a81548160ff021916908360ff1602179055505050600160405180604001604052806040518060400160405280600581526020017f54657374320000000000000000000000000000000000000000000000000000008152508152602001600060ff168152509080600181540180825580915050600190039060005260206000209060020201600090919091909150600082015181600001908051906020019061017a9291906101a3565b5060208201518160010160006101000a81548160ff021916908360ff16021790555050506102a7565b8280546101af90610275565b90600052602060002090601f0160209004810192826101d15760008555610218565b82601f106101ea57805160ff1916838001178555610218565b82800160010185558215610218579182015b828111156102175782518255916020019190600101906101fc565b5b5090506102259190610229565b5090565b5b8082111561024257600081600090555060010161022a565b5090565b7f4e487b7100000000000000000000000000000000000000000000000000000000600052602260045260246000fd5b6000600282049050600182168061028d57607f821691505b602082108114156102a1576102a0610246565b5b50919050565b610883806102b66000396000f3fe608060405234801561001057600080fd5b50600436106100575760003560e01c806309eef43e1461005c5780634d14e3441461008c578063632a9a52146100aa578063e97995dc146100b4578063f6fd7fde146100d2575b600080fd5b61007660048036038101906100719190610424565b610103565b604051610083919061046c565b60405180910390f35b610094610123565b6040516100a191906104a3565b60405180910390f35b6100b2610136565b005b6100bc6101ea565b6040516100c99190610665565b60405180910390f35b6100ec60048036038101906100e791906106bd565b6102f8565b6040516100fa929190610734565b60405180910390f35b60006020528060005260406000206000915054906101000a900460ff1681565b600260009054906101000a900460ff1681565b60016000803373ffffffffffffffffffffffffffffffffffffffff1673ffffffffffffffffffffffffffffffffffffffff16815260200190815260200160002060006101000a81548160ff021916908315150217905550600180815481106101a1576101a0610764565b5b9060005260206000209060020201600101600081819054906101000a900460ff16809291906101cf906107c2565b91906101000a81548160ff021916908360ff16021790555050565b60606001805480602002602001604051908101604052809291908181526020016000905b828210156102ef57838290600052602060002090600202016040518060400160405290816000820180546102419061081b565b80601f016020809104026020016040519081016040528092919081815260200182805461026d9061081b565b80156102ba5780601f1061028f576101008083540402835291602001916102ba565b820191906000526020600020905b81548152906001019060200180831161029d57829003601f168201915b505050505081526020016001820160009054906101000a900460ff1660ff1660ff16815250508152602001906001019061020e565b50505050905090565b6001818154811061030857600080fd5b906000526020600020906002020160009150905080600001805461032b9061081b565b80601f01602080910402602001604051908101604052809291908181526020018280546103579061081b565b80156103a45780601f10610379576101008083540402835291602001916103a4565b820191906000526020600020905b81548152906001019060200180831161038757829003601f168201915b5050505050908060010160009054906101000a900460ff16905082565b600080fd5b600073ffffffffffffffffffffffffffffffffffffffff82169050919050565b60006103f1826103c6565b9050919050565b610401816103e6565b811461040c57600080fd5b50565b60008135905061041e816103f8565b92915050565b60006020828403121561043a576104396103c1565b5b60006104488482850161040f565b91505092915050565b60008115159050919050565b61046681610451565b82525050565b6000602082019050610481600083018461045d565b92915050565b600060ff82169050919050565b61049d81610487565b82525050565b60006020820190506104b86000830184610494565b92915050565b600081519050919050565b600082825260208201905092915050565b6000819050602082019050919050565b600081519050919050565b600082825260208201905092915050565b60005b83811015610524578082015181840152602081019050610509565b83811115610533576000848401525b50505050565b6000601f19601f8301169050919050565b6000610555826104ea565b61055f81856104f5565b935061056f818560208601610506565b61057881610539565b840191505092915050565b61058c81610487565b82525050565b600060408301600083015184820360008601526105af828261054a565b91505060208301516105c46020860182610583565b508091505092915050565b60006105db8383610592565b905092915050565b6000602082019050919050565b60006105fb826104be565b61060581856104c9565b935083602082028501610617856104da565b8060005b85811015610653578484038952815161063485826105cf565b945061063f836105e3565b925060208a0199505060018101905061061b565b50829750879550505050505092915050565b6000602082019050818103600083015261067f81846105f0565b905092915050565b6000819050919050565b61069a81610687565b81146106a557600080fd5b50565b6000813590506106b781610691565b92915050565b6000602082840312156106d3576106d26103c1565b5b60006106e1848285016106a8565b91505092915050565b600082825260208201905092915050565b6000610706826104ea565b61071081856106ea565b9350610720818560208601610506565b61072981610539565b840191505092915050565b6000604082019050818103600083015261074e81856106fb565b905061075d6020830184610494565b9392505050565b7f4e487b7100000000000000000000000000000000000000000000000000000000600052603260045260246000fd5b7f4e487b7100000000000000000000000000000000000000000000000000000000600052601160045260246000fd5b60006107cd82610487565b915060ff8214156107e1576107e0610793565b5b600182019050919050565b7f4e487b7100000000000000000000000000000000000000000000000000000000600052602260045260246000fd5b6000600282049050600182168061083357607f821691505b60208210811415610847576108466107ec565b5b5091905056fea26469706673582212202f826dde38329e4bf98ea94dafaaaf7858d9e2cc3f2649a18c4bde12c388a92f64736f6c63430008090033",
  "immutableReferences": {},
  "source": "// SPDX-License-Identifier: MIT\npragma solidity ^0.8.9;\n\ncontract Voting {\n    struct choiceData {\n        string name;\n        uint8 votes;\n    }\n\n    mapping(address => bool) public hasVoted;\n    choiceData[] public choices;\n    uint8 public numberOfChoices;\n\n    function vote() public {\n        // require(!hasVoted[msg.sender]);\n        hasVoted[msg.sender] = true;\n        choices[1].votes++;\n    }\n\n    function getAllChoices() public view returns (choiceData[] memory) {\n        return choices;\n    }\n\n    //choiceData[] memory _initalChoices\n    constructor() {\n        numberOfChoices = 2;\n        choices.push(choiceData(\"Test\", 0));\n        choices.push(choiceData(\"Test2\", 0));\n    }\n}\n",
  "sourcePath": "/home/jack/nftsite/contracts/Voting.sol",
  "compiler": {
    "name": "solc",
    "version": "0.8.9+commit.e5eed63a.Emscripten.clang"
  },
  "schemaVersion": "3.4.3",
  "updatedAt": "2023-10-10T10:31:30.814Z",
  "networkType": "ethereum",
  "devdoc": {
    "kind": "dev",
    "methods": {},
    "version": 1
  },
  "userdoc": {
    "kind": "user",
    "methods": {},
    "version": 1
  }
}