{
  "contractName": "VotingControler",
  "abi": [
    {
      "inputs": [],
      "stateMutability": "nonpayable",
      "type": "constructor"
    },
    {
      "inputs": [
        {
          "internalType": "uint256",
          "name": "",
          "type": "uint256"
        }
      ],
      "name": "votingContracts",
      "outputs": [
        {
          "internalType": "string",
          "name": "name",
          "type": "string"
        },
        {
          "internalType": "contract Voting",
          "name": "votingContracts",
          "type": "address"
        }
      ],
      "stateMutability": "view",
      "type": "function",
      "constant": true
    },
    {
      "inputs": [],
      "name": "getAllVotingContracts",
      "outputs": [
        {
          "components": [
            {
              "internalType": "string",
              "name": "name",
              "type": "string"
            },
            {
              "internalType": "contract Voting",
              "name": "votingContracts",
              "type": "address"
            }
          ],
          "internalType": "struct VotingControler.voteData[]",
          "name": "",
          "type": "tuple[]"
        }
      ],
      "stateMutability": "view",
      "type": "function",
      "constant": true
    },
    {
      "inputs": [
        {
          "internalType": "string",
          "name": "_name",
          "type": "string"
        }
      ],
      "name": "createNewVote",
      "outputs": [],
      "stateMutability": "nonpayable",
      "type": "function"
    }
  ],
  "bytecode": "0x60806040523480156200001157600080fd5b50620000586040518060400160405280600581526020017f4669727374000000000000000000000000000000000000000000000000000000815250620000a460201b60201c565b6200009e6040518060400160405280600681526020017f5365636f6e640000000000000000000000000000000000000000000000000000815250620000a460201b60201c565b620002b9565b6000604051620000b49062000196565b604051809103906000f080158015620000d1573d6000803e3d6000fd5b509050600060405180604001604052808481526020018373ffffffffffffffffffffffffffffffffffffffff168152509080600181540180825580915050600190039060005260206000209060020201600090919091909150600082015181600001908051906020019062000148929190620001a4565b5060208201518160010160006101000a81548173ffffffffffffffffffffffffffffffffffffffff021916908373ffffffffffffffffffffffffffffffffffffffff16021790555050505050565b610821806200154c83390190565b828054620001b29062000283565b90600052602060002090601f016020900481019282620001d6576000855562000222565b82601f10620001f157805160ff191683800117855562000222565b8280016001018555821562000222579182015b828111156200022157825182559160200191906001019062000204565b5b50905062000231919062000235565b5090565b5b808211156200025057600081600090555060010162000236565b5090565b7f4e487b7100000000000000000000000000000000000000000000000000000000600052602260045260246000fd5b600060028204905060018216806200029c57607f821691505b60208210811415620002b357620002b262000254565b5b50919050565b61128380620002c96000396000f3fe60806040523480156200001157600080fd5b5060043610620000455760003560e01c8062916c2e146200004a578063322aa8e3146200006c5780636801f32414620000a3575b600080fd5b62000054620000c3565b604051620000639190620006e9565b60405180910390f35b6200008a60048036038101906200008491906200075c565b62000214565b6040516200009a929190620007f1565b60405180910390f35b620000c16004803603810190620000bb919062000976565b620002f9565b005b60606000805480602002602001604051908101604052809291908181526020016000905b828210156200020b57838290600052602060002090600202016040518060400160405290816000820180546200011d90620009f6565b80601f01602080910402602001604051908101604052809291908181526020018280546200014b90620009f6565b80156200019c5780601f1062000170576101008083540402835291602001916200019c565b820191906000526020600020905b8154815290600101906020018083116200017e57829003601f168201915b505050505081526020016001820160009054906101000a900473ffffffffffffffffffffffffffffffffffffffff1673ffffffffffffffffffffffffffffffffffffffff1673ffffffffffffffffffffffffffffffffffffffff168152505081526020019060010190620000e7565b50505050905090565b600081815481106200022557600080fd5b90600052602060002090600202016000915090508060000180546200024a90620009f6565b80601f01602080910402602001604051908101604052809291908181526020018280546200027890620009f6565b8015620002c95780601f106200029d57610100808354040283529160200191620002c9565b820191906000526020600020905b815481529060010190602001808311620002ab57829003601f168201915b5050505050908060010160009054906101000a900473ffffffffffffffffffffffffffffffffffffffff16905082565b60006040516200030990620003eb565b604051809103906000f08015801562000326573d6000803e3d6000fd5b509050600060405180604001604052808481526020018373ffffffffffffffffffffffffffffffffffffffff16815250908060018154018082558091505060019003906000526020600020906002020160009091909190915060008201518160000190805190602001906200039d929190620003f9565b5060208201518160010160006101000a81548173ffffffffffffffffffffffffffffffffffffffff021916908373ffffffffffffffffffffffffffffffffffffffff16021790555050505050565b6108218062000a2d83390190565b8280546200040790620009f6565b90600052602060002090601f0160209004810192826200042b576000855562000477565b82601f106200044657805160ff191683800117855562000477565b8280016001018555821562000477579182015b828111156200047657825182559160200191906001019062000459565b5b5090506200048691906200048a565b5090565b5b80821115620004a55760008160009055506001016200048b565b5090565b600081519050919050565b600082825260208201905092915050565b6000819050602082019050919050565b600081519050919050565b600082825260208201905092915050565b60005b8381101562000511578082015181840152602081019050620004f4565b8381111562000521576000848401525b50505050565b6000601f19601f8301169050919050565b60006200054582620004d5565b620005518185620004e0565b935062000563818560208601620004f1565b6200056e8162000527565b840191505092915050565b600073ffffffffffffffffffffffffffffffffffffffff82169050919050565b6000819050919050565b6000620005c4620005be620005b88462000579565b62000599565b62000579565b9050919050565b6000620005d882620005a3565b9050919050565b6000620005ec82620005cb565b9050919050565b620005fe81620005df565b82525050565b6000604083016000830151848203600086015262000623828262000538565b91505060208301516200063a6020860182620005f3565b508091505092915050565b600062000653838362000604565b905092915050565b6000602082019050919050565b60006200067582620004a9565b620006818185620004b4565b9350836020820285016200069585620004c5565b8060005b85811015620006d75784840389528151620006b5858262000645565b9450620006c2836200065b565b925060208a0199505060018101905062000699565b50829750879550505050505092915050565b6000602082019050818103600083015262000705818462000668565b905092915050565b6000604051905090565b600080fd5b600080fd5b6000819050919050565b620007368162000721565b81146200074257600080fd5b50565b60008135905062000756816200072b565b92915050565b60006020828403121562000775576200077462000717565b5b6000620007858482850162000745565b91505092915050565b600082825260208201905092915050565b6000620007ac82620004d5565b620007b881856200078e565b9350620007ca818560208601620004f1565b620007d58162000527565b840191505092915050565b620007eb81620005df565b82525050565b600060408201905081810360008301526200080d81856200079f565b90506200081e6020830184620007e0565b9392505050565b600080fd5b600080fd5b7f4e487b7100000000000000000000000000000000000000000000000000000000600052604160045260246000fd5b620008698262000527565b810181811067ffffffffffffffff821117156200088b576200088a6200082f565b5b80604052505050565b6000620008a06200070d565b9050620008ae82826200085e565b919050565b600067ffffffffffffffff821115620008d157620008d06200082f565b5b620008dc8262000527565b9050602081019050919050565b82818337600083830152505050565b60006200090f6200090984620008b3565b62000894565b9050828152602081018484840111156200092e576200092d6200082a565b5b6200093b848285620008e9565b509392505050565b600082601f8301126200095b576200095a62000825565b5b81356200096d848260208601620008f8565b91505092915050565b6000602082840312156200098f576200098e62000717565b5b600082013567ffffffffffffffff811115620009b057620009af6200071c565b5b620009be8482850162000943565b91505092915050565b7f4e487b7100000000000000000000000000000000000000000000000000000000600052602260045260246000fd5b6000600282049050600182168062000a0f57607f821691505b6020821081141562000a265762000a25620009c7565b5b5091905056fe608060405234801561001057600080fd5b5060028060006101000a81548160ff021916908360ff16021790555060405180604001604052806040518060400160405280600481526020017f54657374000000000000000000000000000000000000000000000000000000008152508152602001600060ff16815250600160008060ff16815260200190815260200160002060008201518160000190805190602001906100ac92919061017c565b5060208201518160010160006101000a81548160ff021916908360ff16021790555090505060405180604001604052806040518060400160405280600581526020017f54657374320000000000000000000000000000000000000000000000000000008152508152602001600060ff1681525060016000600160ff168152602001908152602001600020600082015181600001908051906020019061015292919061017c565b5060208201518160010160006101000a81548160ff021916908360ff160217905550905050610280565b8280546101889061024e565b90600052602060002090601f0160209004810192826101aa57600085556101f1565b82601f106101c357805160ff19168380011785556101f1565b828001600101855582156101f1579182015b828111156101f05782518255916020019190600101906101d5565b5b5090506101fe9190610202565b5090565b5b8082111561021b576000816000905550600101610203565b5090565b7f4e487b7100000000000000000000000000000000000000000000000000000000600052602260045260246000fd5b6000600282049050600182168061026657607f821691505b6020821081141561027a5761027961021f565b5b50919050565b6105928061028f6000396000f3fe608060405234801561001057600080fd5b50600436106100415760003560e01c806309eef43e14610046578063326ea0fe14610076578063b3f98adc146100a7575b600080fd5b610060600480360381019061005b9190610301565b6100c3565b60405161006d9190610349565b60405180910390f35b610090600480360381019061008b919061039d565b6100e3565b60405161009e929190610472565b60405180910390f35b6100c160048036038101906100bc919061039d565b61019c565b005b60006020528060005260406000206000915054906101000a900460ff1681565b6001602052806000526040600020600091509050806000018054610106906104d1565b80601f0160208091040260200160405190810160405280929190818152602001828054610132906104d1565b801561017f5780601f106101545761010080835404028352916020019161017f565b820191906000526020600020905b81548152906001019060200180831161016257829003601f168201915b5050505050908060010160009054906101000a900460ff16905082565b6000803373ffffffffffffffffffffffffffffffffffffffff1673ffffffffffffffffffffffffffffffffffffffff16815260200190815260200160002060009054906101000a900460ff16156101f257600080fd5b60016000803373ffffffffffffffffffffffffffffffffffffffff1673ffffffffffffffffffffffffffffffffffffffff16815260200190815260200160002060006101000a81548160ff021916908315150217905550600160008260ff1660ff168152602001908152602001600020600101600081819054906101000a900460ff168092919061028290610532565b91906101000a81548160ff021916908360ff1602179055505050565b600080fd5b600073ffffffffffffffffffffffffffffffffffffffff82169050919050565b60006102ce826102a3565b9050919050565b6102de816102c3565b81146102e957600080fd5b50565b6000813590506102fb816102d5565b92915050565b6000602082840312156103175761031661029e565b5b6000610325848285016102ec565b91505092915050565b60008115159050919050565b6103438161032e565b82525050565b600060208201905061035e600083018461033a565b92915050565b600060ff82169050919050565b61037a81610364565b811461038557600080fd5b50565b60008135905061039781610371565b92915050565b6000602082840312156103b3576103b261029e565b5b60006103c184828501610388565b91505092915050565b600081519050919050565b600082825260208201905092915050565b60005b838110156104045780820151818401526020810190506103e9565b83811115610413576000848401525b50505050565b6000601f19601f8301169050919050565b6000610435826103ca565b61043f81856103d5565b935061044f8185602086016103e6565b61045881610419565b840191505092915050565b61046c81610364565b82525050565b6000604082019050818103600083015261048c818561042a565b905061049b6020830184610463565b9392505050565b7f4e487b7100000000000000000000000000000000000000000000000000000000600052602260045260246000fd5b600060028204905060018216806104e957607f821691505b602082108114156104fd576104fc6104a2565b5b50919050565b7f4e487b7100000000000000000000000000000000000000000000000000000000600052601160045260246000fd5b600061053d82610364565b915060ff82141561055157610550610503565b5b60018201905091905056fea264697066735822122045fb390c44ae401669ab1359fce5084af58fdfe613cc619cb52b4f7cfcd7fc6564736f6c63430008090033a2646970667358221220d512cb2abfbcf1c018bc14577b4515ec90a0b5f3759a536ef3da679c4630b19e64736f6c63430008090033608060405234801561001057600080fd5b5060028060006101000a81548160ff021916908360ff16021790555060405180604001604052806040518060400160405280600481526020017f54657374000000000000000000000000000000000000000000000000000000008152508152602001600060ff16815250600160008060ff16815260200190815260200160002060008201518160000190805190602001906100ac92919061017c565b5060208201518160010160006101000a81548160ff021916908360ff16021790555090505060405180604001604052806040518060400160405280600581526020017f54657374320000000000000000000000000000000000000000000000000000008152508152602001600060ff1681525060016000600160ff168152602001908152602001600020600082015181600001908051906020019061015292919061017c565b5060208201518160010160006101000a81548160ff021916908360ff160217905550905050610280565b8280546101889061024e565b90600052602060002090601f0160209004810192826101aa57600085556101f1565b82601f106101c357805160ff19168380011785556101f1565b828001600101855582156101f1579182015b828111156101f05782518255916020019190600101906101d5565b5b5090506101fe9190610202565b5090565b5b8082111561021b576000816000905550600101610203565b5090565b7f4e487b7100000000000000000000000000000000000000000000000000000000600052602260045260246000fd5b6000600282049050600182168061026657607f821691505b6020821081141561027a5761027961021f565b5b50919050565b6105928061028f6000396000f3fe608060405234801561001057600080fd5b50600436106100415760003560e01c806309eef43e14610046578063326ea0fe14610076578063b3f98adc146100a7575b600080fd5b610060600480360381019061005b9190610301565b6100c3565b60405161006d9190610349565b60405180910390f35b610090600480360381019061008b919061039d565b6100e3565b60405161009e929190610472565b60405180910390f35b6100c160048036038101906100bc919061039d565b61019c565b005b60006020528060005260406000206000915054906101000a900460ff1681565b6001602052806000526040600020600091509050806000018054610106906104d1565b80601f0160208091040260200160405190810160405280929190818152602001828054610132906104d1565b801561017f5780601f106101545761010080835404028352916020019161017f565b820191906000526020600020905b81548152906001019060200180831161016257829003601f168201915b5050505050908060010160009054906101000a900460ff16905082565b6000803373ffffffffffffffffffffffffffffffffffffffff1673ffffffffffffffffffffffffffffffffffffffff16815260200190815260200160002060009054906101000a900460ff16156101f257600080fd5b60016000803373ffffffffffffffffffffffffffffffffffffffff1673ffffffffffffffffffffffffffffffffffffffff16815260200190815260200160002060006101000a81548160ff021916908315150217905550600160008260ff1660ff168152602001908152602001600020600101600081819054906101000a900460ff168092919061028290610532565b91906101000a81548160ff021916908360ff1602179055505050565b600080fd5b600073ffffffffffffffffffffffffffffffffffffffff82169050919050565b60006102ce826102a3565b9050919050565b6102de816102c3565b81146102e957600080fd5b50565b6000813590506102fb816102d5565b92915050565b6000602082840312156103175761031661029e565b5b6000610325848285016102ec565b91505092915050565b60008115159050919050565b6103438161032e565b82525050565b600060208201905061035e600083018461033a565b92915050565b600060ff82169050919050565b61037a81610364565b811461038557600080fd5b50565b60008135905061039781610371565b92915050565b6000602082840312156103b3576103b261029e565b5b60006103c184828501610388565b91505092915050565b600081519050919050565b600082825260208201905092915050565b60005b838110156104045780820151818401526020810190506103e9565b83811115610413576000848401525b50505050565b6000601f19601f8301169050919050565b6000610435826103ca565b61043f81856103d5565b935061044f8185602086016103e6565b61045881610419565b840191505092915050565b61046c81610364565b82525050565b6000604082019050818103600083015261048c818561042a565b905061049b6020830184610463565b9392505050565b7f4e487b7100000000000000000000000000000000000000000000000000000000600052602260045260246000fd5b600060028204905060018216806104e957607f821691505b602082108114156104fd576104fc6104a2565b5b50919050565b7f4e487b7100000000000000000000000000000000000000000000000000000000600052601160045260246000fd5b600061053d82610364565b915060ff82141561055157610550610503565b5b60018201905091905056fea264697066735822122045fb390c44ae401669ab1359fce5084af58fdfe613cc619cb52b4f7cfcd7fc6564736f6c63430008090033",
  "immutableReferences": {},
  "source": "// SPDX-License-Identifier: MIT\npragma solidity ^0.8.9;\n\nimport \"./Voting.sol\";\n\ncontract VotingControler {\n\n    voteData[] public votingContracts;\n\n    struct voteData{\n        string name;\n        Voting votingContracts;\n    }\n\n    function getAllVotingContracts () public view returns (voteData[] memory){\n        return votingContracts;\n    }\n\n    function createNewVote(string memory _name) public {\n          Voting newContract = new Voting();\n          votingContracts.push(voteData(\n            _name,\n            newContract\n            )\n            );\n    }\n\n    constructor(\n        //choiceData[] memory _initalChoices\n    ){\n        createNewVote(\"First\");\n        createNewVote(\"Second\");\n    }\n}",
  "sourcePath": "/home/jack/nftsite/contracts/VotingControler.sol",
  "compiler": {
    "name": "solc",
    "version": "0.8.9+commit.e5eed63a.Emscripten.clang"
  },
  "schemaVersion": "3.4.3",
  "updatedAt": "2023-10-09T15:29:19.478Z",
  "networkType": "ethereum",
  "devdoc": {
    "kind": "dev",
    "methods": {},
    "version": 1
  },
  "userdoc": {
    "kind": "user",
    "methods": {},
    "version": 1
  }
}