{
  "contractName": "Voting",
  "abi": [
    {
      "inputs": [],
      "stateMutability": "nonpayable",
      "type": "constructor"
    },
    {
      "inputs": [
        {
          "internalType": "uint256",
          "name": "",
          "type": "uint256"
        }
      ],
      "name": "choices",
      "outputs": [
        {
          "internalType": "string",
          "name": "name",
          "type": "string"
        },
        {
          "internalType": "uint8",
          "name": "votes",
          "type": "uint8"
        }
      ],
      "stateMutability": "view",
      "type": "function"
    },
    {
      "inputs": [
        {
          "internalType": "address",
          "name": "",
          "type": "address"
        }
      ],
      "name": "hasVoted",
      "outputs": [
        {
          "internalType": "bool",
          "name": "",
          "type": "bool"
        }
      ],
      "stateMutability": "view",
      "type": "function"
    },
    {
      "inputs": [],
      "name": "numberOfChoices",
      "outputs": [
        {
          "internalType": "uint8",
          "name": "",
          "type": "uint8"
        }
      ],
      "stateMutability": "view",
      "type": "function"
    },
    {
      "inputs": [
        {
          "internalType": "uint8",
          "name": "_choice",
          "type": "uint8"
        }
      ],
      "name": "vote",
      "outputs": [],
      "stateMutability": "nonpayable",
      "type": "function"
    },
    {
      "inputs": [],
      "name": "getAllChoices",
      "outputs": [
        {
          "components": [
            {
              "internalType": "string",
              "name": "name",
              "type": "string"
            },
            {
              "internalType": "uint8",
              "name": "votes",
              "type": "uint8"
            }
          ],
          "internalType": "struct Voting.choiceData[]",
          "name": "",
          "type": "tuple[]"
        }
      ],
      "stateMutability": "view",
      "type": "function"
    }
  ],
  "bytecode": "0x60806040523480156200001157600080fd5b5060028060006101000a81548160ff021916908360ff16021790555060405180604001604052806040518060400160405280600481526020017f54657374000000000000000000000000000000000000000000000000000000008152508152602001600060ff16815250600160008154811062000093576200009262000250565b5b90600052602060002090600202016000820151816000019080519060200190620000bf929190620001a0565b5060208201518160010160006101000a81548160ff021916908360ff16021790555090505060405180604001604052806040518060400160405280600581526020017f54657374320000000000000000000000000000000000000000000000000000008152508152602001600060ff168152506001808154811062000149576200014862000250565b5b9060005260206000209060020201600082015181600001908051906020019062000175929190620001a0565b5060208201518160010160006101000a81548160ff021916908360ff160217905550905050620002e4565b828054620001ae90620002ae565b90600052602060002090601f016020900481019282620001d257600085556200021e565b82601f10620001ed57805160ff19168380011785556200021e565b828001600101855582156200021e579182015b828111156200021d57825182559160200191906001019062000200565b5b5090506200022d919062000231565b5090565b5b808211156200024c57600081600090555060010162000232565b5090565b7f4e487b7100000000000000000000000000000000000000000000000000000000600052603260045260246000fd5b7f4e487b7100000000000000000000000000000000000000000000000000000000600052602260045260246000fd5b60006002820490506001821680620002c757607f821691505b60208210811415620002de57620002dd6200027f565b5b50919050565b6108f280620002f46000396000f3fe608060405234801561001057600080fd5b50600436106100575760003560e01c806309eef43e1461005c5780634d14e3441461008c578063b3f98adc146100aa578063e97995dc146100c6578063f6fd7fde146100e4575b600080fd5b6100766004803603810190610071919061043a565b610115565b6040516100839190610482565b60405180910390f35b610094610135565b6040516100a191906104b9565b60405180910390f35b6100c460048036038101906100bf9190610500565b610148565b005b6100ce610200565b6040516100db91906106d4565b60405180910390f35b6100fe60048036038101906100f9919061072c565b61030e565b60405161010c9291906107a3565b60405180910390f35b60006020528060005260406000206000915054906101000a900460ff1681565b600260009054906101000a900460ff1681565b60016000803373ffffffffffffffffffffffffffffffffffffffff1673ffffffffffffffffffffffffffffffffffffffff16815260200190815260200160002060006101000a81548160ff02191690831515021790555060018160ff16815481106101b6576101b56107d3565b5b9060005260206000209060020201600101600081819054906101000a900460ff16809291906101e490610831565b91906101000a81548160ff021916908360ff1602179055505050565b60606001805480602002602001604051908101604052809291908181526020016000905b8282101561030557838290600052602060002090600202016040518060400160405290816000820180546102579061088a565b80601f01602080910402602001604051908101604052809291908181526020018280546102839061088a565b80156102d05780601f106102a5576101008083540402835291602001916102d0565b820191906000526020600020905b8154815290600101906020018083116102b357829003601f168201915b505050505081526020016001820160009054906101000a900460ff1660ff1660ff168152505081526020019060010190610224565b50505050905090565b6001818154811061031e57600080fd5b90600052602060002090600202016000915090508060000180546103419061088a565b80601f016020809104026020016040519081016040528092919081815260200182805461036d9061088a565b80156103ba5780601f1061038f576101008083540402835291602001916103ba565b820191906000526020600020905b81548152906001019060200180831161039d57829003601f168201915b5050505050908060010160009054906101000a900460ff16905082565b600080fd5b600073ffffffffffffffffffffffffffffffffffffffff82169050919050565b6000610407826103dc565b9050919050565b610417816103fc565b811461042257600080fd5b50565b6000813590506104348161040e565b92915050565b6000602082840312156104505761044f6103d7565b5b600061045e84828501610425565b91505092915050565b60008115159050919050565b61047c81610467565b82525050565b60006020820190506104976000830184610473565b92915050565b600060ff82169050919050565b6104b38161049d565b82525050565b60006020820190506104ce60008301846104aa565b92915050565b6104dd8161049d565b81146104e857600080fd5b50565b6000813590506104fa816104d4565b92915050565b600060208284031215610516576105156103d7565b5b6000610524848285016104eb565b91505092915050565b600081519050919050565b600082825260208201905092915050565b6000819050602082019050919050565b600081519050919050565b600082825260208201905092915050565b60005b83811015610593578082015181840152602081019050610578565b838111156105a2576000848401525b50505050565b6000601f19601f8301169050919050565b60006105c482610559565b6105ce8185610564565b93506105de818560208601610575565b6105e7816105a8565b840191505092915050565b6105fb8161049d565b82525050565b6000604083016000830151848203600086015261061e82826105b9565b915050602083015161063360208601826105f2565b508091505092915050565b600061064a8383610601565b905092915050565b6000602082019050919050565b600061066a8261052d565b6106748185610538565b93508360208202850161068685610549565b8060005b858110156106c257848403895281516106a3858261063e565b94506106ae83610652565b925060208a0199505060018101905061068a565b50829750879550505050505092915050565b600060208201905081810360008301526106ee818461065f565b905092915050565b6000819050919050565b610709816106f6565b811461071457600080fd5b50565b60008135905061072681610700565b92915050565b600060208284031215610742576107416103d7565b5b600061075084828501610717565b91505092915050565b600082825260208201905092915050565b600061077582610559565b61077f8185610759565b935061078f818560208601610575565b610798816105a8565b840191505092915050565b600060408201905081810360008301526107bd818561076a565b90506107cc60208301846104aa565b9392505050565b7f4e487b7100000000000000000000000000000000000000000000000000000000600052603260045260246000fd5b7f4e487b7100000000000000000000000000000000000000000000000000000000600052601160045260246000fd5b600061083c8261049d565b915060ff8214156108505761084f610802565b5b600182019050919050565b7f4e487b7100000000000000000000000000000000000000000000000000000000600052602260045260246000fd5b600060028204905060018216806108a257607f821691505b602082108114156108b6576108b561085b565b5b5091905056fea264697066735822122079171d026b245f3c109311582fa2736c919ec0b6fe5c3b71fc429917b5f20c1b64736f6c63430008090033",
  "immutableReferences": {},
  "source": "// SPDX-License-Identifier: MIT\npragma solidity ^0.8.9;\n\ncontract Voting {\n    struct choiceData {\n        string name;\n        uint8 votes;\n    }\n\n    mapping(address => bool) public hasVoted;\n    choiceData[] public choices;\n    uint8 public numberOfChoices;\n\n    function vote(uint8 _choice) public {\n        // require(!hasVoted[msg.sender]);\n        hasVoted[msg.sender] = true;\n        choices[_choice].votes++;\n    }\n\n    function getAllChoices() public view returns (choiceData[] memory) {\n        return choices;\n    }\n\n    constructor() {\n        numberOfChoices = 2;\n        choices[0] = choiceData(\"Test\", 0);\n        choices[1] = choiceData(\"Test2\", 0);\n    }\n}\n",
  "sourcePath": "/home/jack/nftsite/contracts/Voting.sol",
  "compiler": {
    "name": "solc",
    "version": "0.8.9+commit.e5eed63a.Emscripten.clang"
  },
  "schemaVersion": "3.4.3",
  "updatedAt": "2023-10-11T11:01:10.644Z",
  "networkType": "ethereum",
  "devdoc": {
    "kind": "dev",
    "methods": {},
    "version": 1
  },
  "userdoc": {
    "kind": "user",
    "methods": {},
    "version": 1
  }
}