{
  "contractName": "Voting",
  "abi": [
    {
      "inputs": [],
      "stateMutability": "nonpayable",
      "type": "constructor"
    },
    {
      "inputs": [
        {
          "internalType": "uint256",
          "name": "",
          "type": "uint256"
        }
      ],
      "name": "choices",
      "outputs": [
        {
          "internalType": "string",
          "name": "name",
          "type": "string"
        },
        {
          "internalType": "uint8",
          "name": "votes",
          "type": "uint8"
        }
      ],
      "stateMutability": "view",
      "type": "function",
      "constant": true
    },
    {
      "inputs": [
        {
          "internalType": "address",
          "name": "",
          "type": "address"
        }
      ],
      "name": "hasVoted",
      "outputs": [
        {
          "internalType": "bool",
          "name": "",
          "type": "bool"
        }
      ],
      "stateMutability": "view",
      "type": "function",
      "constant": true
    },
    {
      "inputs": [],
      "name": "numberOfChoices",
      "outputs": [
        {
          "internalType": "uint8",
          "name": "",
          "type": "uint8"
        }
      ],
      "stateMutability": "view",
      "type": "function",
      "constant": true
    },
    {
      "inputs": [
        {
          "internalType": "uint8",
          "name": "_choice",
          "type": "uint8"
        }
      ],
      "name": "vote",
      "outputs": [],
      "stateMutability": "nonpayable",
      "type": "function"
    },
    {
      "inputs": [],
      "name": "getAllChoices",
      "outputs": [
        {
          "components": [
            {
              "internalType": "string",
              "name": "name",
              "type": "string"
            },
            {
              "internalType": "uint8",
              "name": "votes",
              "type": "uint8"
            }
          ],
          "internalType": "struct Voting.ChoiceData[]",
          "name": "",
          "type": "tuple[]"
        }
      ],
      "stateMutability": "view",
      "type": "function",
      "constant": true
    }
  ],
  "bytecode": "0x608060405234801561001057600080fd5b5060028060006101000a81548160ff021916908360ff160217905550600160405180604001604052806040518060400160405280600481526020017f54657374000000000000000000000000000000000000000000000000000000008152508152602001600060ff16815250908060018154018082558091505060019003906000526020600020906002020160009091909190915060008201518160000190805190602001906100c19291906101a3565b5060208201518160010160006101000a81548160ff021916908360ff1602179055505050600160405180604001604052806040518060400160405280600581526020017f54657374320000000000000000000000000000000000000000000000000000008152508152602001600060ff168152509080600181540180825580915050600190039060005260206000209060020201600090919091909150600082015181600001908051906020019061017a9291906101a3565b5060208201518160010160006101000a81548160ff021916908360ff16021790555050506102a7565b8280546101af90610275565b90600052602060002090601f0160209004810192826101d15760008555610218565b82601f106101ea57805160ff1916838001178555610218565b82800160010185558215610218579182015b828111156102175782518255916020019190600101906101fc565b5b5090506102259190610229565b5090565b5b8082111561024257600081600090555060010161022a565b5090565b7f4e487b7100000000000000000000000000000000000000000000000000000000600052602260045260246000fd5b6000600282049050600182168061028d57607f821691505b602082108114156102a1576102a0610246565b5b50919050565b610aad80620002b76000396000f3fe608060405234801561001057600080fd5b50600436106100575760003560e01c806309eef43e1461005c5780634d14e3441461008c578063b3f98adc146100aa578063e97995dc146100c6578063f6fd7fde146100e4575b600080fd5b6100766004803603810190610071919061051d565b610115565b6040516100839190610565565b60405180910390f35b610094610135565b6040516100a1919061059c565b60405180910390f35b6100c460048036038101906100bf91906105e3565b610148565b005b6100ce6102e3565b6040516100db91906107b7565b60405180910390f35b6100fe60048036038101906100f9919061080f565b6103f1565b60405161010c929190610886565b60405180910390f35b60006020528060005260406000206000915054906101000a900460ff1681565b600260009054906101000a900460ff1681565b6000803373ffffffffffffffffffffffffffffffffffffffff1673ffffffffffffffffffffffffffffffffffffffff16815260200190815260200160002060009054906101000a900460ff16156101d4576040517f08c379a00000000000000000000000000000000000000000000000000000000081526004016101cb90610902565b60405180910390fd5b600260009054906101000a900460ff1660ff168160ff161061022b576040517f08c379a00000000000000000000000000000000000000000000000000000000081526004016102229061096e565b60405180910390fd5b60016000803373ffffffffffffffffffffffffffffffffffffffff1673ffffffffffffffffffffffffffffffffffffffff16815260200190815260200160002060006101000a81548160ff02191690831515021790555060018160ff16815481106102995761029861098e565b5b9060005260206000209060020201600101600081819054906101000a900460ff16809291906102c7906109ec565b91906101000a81548160ff021916908360ff1602179055505050565b60606001805480602002602001604051908101604052809291908181526020016000905b828210156103e8578382906000526020600020906002020160405180604001604052908160008201805461033a90610a45565b80601f016020809104026020016040519081016040528092919081815260200182805461036690610a45565b80156103b35780601f10610388576101008083540402835291602001916103b3565b820191906000526020600020905b81548152906001019060200180831161039657829003601f168201915b505050505081526020016001820160009054906101000a900460ff1660ff1660ff168152505081526020019060010190610307565b50505050905090565b6001818154811061040157600080fd5b906000526020600020906002020160009150905080600001805461042490610a45565b80601f016020809104026020016040519081016040528092919081815260200182805461045090610a45565b801561049d5780601f106104725761010080835404028352916020019161049d565b820191906000526020600020905b81548152906001019060200180831161048057829003601f168201915b5050505050908060010160009054906101000a900460ff16905082565b600080fd5b600073ffffffffffffffffffffffffffffffffffffffff82169050919050565b60006104ea826104bf565b9050919050565b6104fa816104df565b811461050557600080fd5b50565b600081359050610517816104f1565b92915050565b600060208284031215610533576105326104ba565b5b600061054184828501610508565b91505092915050565b60008115159050919050565b61055f8161054a565b82525050565b600060208201905061057a6000830184610556565b92915050565b600060ff82169050919050565b61059681610580565b82525050565b60006020820190506105b1600083018461058d565b92915050565b6105c081610580565b81146105cb57600080fd5b50565b6000813590506105dd816105b7565b92915050565b6000602082840312156105f9576105f86104ba565b5b6000610607848285016105ce565b91505092915050565b600081519050919050565b600082825260208201905092915050565b6000819050602082019050919050565b600081519050919050565b600082825260208201905092915050565b60005b8381101561067657808201518184015260208101905061065b565b83811115610685576000848401525b50505050565b6000601f19601f8301169050919050565b60006106a78261063c565b6106b18185610647565b93506106c1818560208601610658565b6106ca8161068b565b840191505092915050565b6106de81610580565b82525050565b60006040830160008301518482036000860152610701828261069c565b915050602083015161071660208601826106d5565b508091505092915050565b600061072d83836106e4565b905092915050565b6000602082019050919050565b600061074d82610610565b610757818561061b565b9350836020820285016107698561062c565b8060005b858110156107a557848403895281516107868582610721565b945061079183610735565b925060208a0199505060018101905061076d565b50829750879550505050505092915050565b600060208201905081810360008301526107d18184610742565b905092915050565b6000819050919050565b6107ec816107d9565b81146107f757600080fd5b50565b600081359050610809816107e3565b92915050565b600060208284031215610825576108246104ba565b5b6000610833848285016107fa565b91505092915050565b600082825260208201905092915050565b60006108588261063c565b610862818561083c565b9350610872818560208601610658565b61087b8161068b565b840191505092915050565b600060408201905081810360008301526108a0818561084d565b90506108af602083018461058d565b9392505050565b7f416c726561647920766f74656400000000000000000000000000000000000000600082015250565b60006108ec600d8361083c565b91506108f7826108b6565b602082019050919050565b6000602082019050818103600083015261091b816108df565b9050919050565b7f496e76616c69642063686f696365000000000000000000000000000000000000600082015250565b6000610958600e8361083c565b915061096382610922565b602082019050919050565b600060208201905081810360008301526109878161094b565b9050919050565b7f4e487b7100000000000000000000000000000000000000000000000000000000600052603260045260246000fd5b7f4e487b7100000000000000000000000000000000000000000000000000000000600052601160045260246000fd5b60006109f782610580565b915060ff821415610a0b57610a0a6109bd565b5b600182019050919050565b7f4e487b7100000000000000000000000000000000000000000000000000000000600052602260045260246000fd5b60006002820490506001821680610a5d57607f821691505b60208210811415610a7157610a70610a16565b5b5091905056fea2646970667358221220e1e5d505fffa0e1862d3bd23e69c676f566a6cf87f21a04ce84b20d9a9f5445c64736f6c63430008090033",
  "immutableReferences": {},
  "source": "// SPDX-License-Identifier: MIT\npragma solidity ^0.8.9;\n\ncontract Voting {\n\n    struct ChoiceData {\n        string name;\n        uint8 votes;\n    }\n\n    mapping (address => bool) public hasVoted;\n    ChoiceData[] public choices;\n    uint8 public numberOfChoices;\n\n    constructor() {\n        numberOfChoices = 2;\n        choices.push(ChoiceData(\"Test\", 0));  // Use push to add choices\n        choices.push(ChoiceData(\"Test2\", 0)); // Use push to add choices\n    }\n\n    function vote(uint8 _choice) public {\n        require(!hasVoted[msg.sender], \"Already voted\");\n        require(_choice < numberOfChoices, \"Invalid choice\");\n        hasVoted[msg.sender] = true;\n        choices[_choice].votes++;\n    }\n\n    function getAllChoices() public view returns (ChoiceData[] memory) {\n        return choices;\n    }\n}\n",
  "sourcePath": "/home/jack/nftsite/contracts/Voting.sol",
  "compiler": {
    "name": "solc",
    "version": "0.8.9+commit.e5eed63a.Emscripten.clang"
  },
  "schemaVersion": "3.4.3",
  "updatedAt": "2023-10-11T15:47:21.211Z",
  "networkType": "ethereum",
  "devdoc": {
    "kind": "dev",
    "methods": {},
    "version": 1
  },
  "userdoc": {
    "kind": "user",
    "methods": {},
    "version": 1
  }
}