{
  "contractName": "SecretNumber",
  "abi": [
    {
      "inputs": [
        {
          "internalType": "uint8",
          "name": "_initalValues",
          "type": "uint8"
        }
      ],
      "stateMutability": "nonpayable",
      "type": "constructor"
    },
    {
      "inputs": [],
      "name": "getSecretNumber",
      "outputs": [
        {
          "internalType": "uint8",
          "name": "_secretNumber",
          "type": "uint8"
        }
      ],
      "stateMutability": "view",
      "type": "function",
      "constant": true
    },
    {
      "inputs": [
        {
          "internalType": "uint8",
          "name": "_updatedValue",
          "type": "uint8"
        }
      ],
      "name": "changeSecretNumber",
      "outputs": [],
      "stateMutability": "nonpayable",
      "type": "function"
    }
  ],
  "bytecode": "0x608060405234801561001057600080fd5b5060405161023f38038061023f83398181016040528101906100329190610090565b806000806101000a81548160ff021916908360ff160217905550506100bd565b600080fd5b600060ff82169050919050565b61006d81610057565b811461007857600080fd5b50565b60008151905061008a81610064565b92915050565b6000602082840312156100a6576100a5610052565b5b60006100b48482850161007b565b91505092915050565b610173806100cc6000396000f3fe608060405234801561001057600080fd5b50600436106100365760003560e01c80632cdb1a311461003b57806384c1d63914610057575b600080fd5b610055600480360381019061005091906100e6565b610075565b005b61005f610092565b60405161006c9190610122565b60405180910390f35b806000806101000a81548160ff021916908360ff16021790555050565b60008060009054906101000a900460ff16905090565b600080fd5b600060ff82169050919050565b6100c3816100ad565b81146100ce57600080fd5b50565b6000813590506100e0816100ba565b92915050565b6000602082840312156100fc576100fb6100a8565b5b600061010a848285016100d1565b91505092915050565b61011c816100ad565b82525050565b60006020820190506101376000830184610113565b9291505056fea2646970667358221220bca0e7c8a544c2a6f379f04a8858966081adb6b2a8ef31625f49a73ffcbd82e464736f6c63430008090033",
  "immutableReferences": {},
  "source": "// SPDX-License-Identifier: MIT\npragma solidity ^0.8.9;\n\n/**\n * @dev This contract stores a number\n */\ncontract SecretNumber {\n\n    uint8 secretNumber;\n\n    /**\n     * @param _initalValues The inital value for secret number\n     */\n    constructor(uint8 _initalValues){\n        secretNumber = _initalValues;\n    }\n\n    function getSecretNumber () public view returns(uint8 _secretNumber){\n        return secretNumber;\n    }\n\n    function changeSecretNumber (uint8 _updatedValue) public{\n        secretNumber = _updatedValue;\n    } \n}",
  "sourcePath": "/home/jack/nftsite/contracts/SecretNumber.sol",
  "compiler": {
    "name": "solc",
    "version": "0.8.9+commit.e5eed63a.Emscripten.clang"
  },
  "schemaVersion": "3.4.3",
  "updatedAt": "2023-10-06T13:11:04.108Z",
  "networkType": "ethereum",
  "devdoc": {
    "details": "This contract stores a number",
    "kind": "dev",
    "methods": {
      "constructor": {
        "params": {
          "_initalValues": "The inital value for secret number"
        }
      }
    },
    "version": 1
  },
  "userdoc": {
    "kind": "user",
    "methods": {},
    "version": 1
  }
}